:020000040800F2
:100000001803002001010008B31900086B1700084D
:10001000B119000895010008F11F00080000000058
:10002000000000000000000000000000D7190008D8
:100030009701000800000000D5190008D919000830
:100040001B0100081B0100081B0100081B01000820
:100050001B0100081B0100081B0100081B01000810
:100060001B0100081B0100081B0100081B01000800
:100070001B0100081B0100081B0100081B010008F0
:100080001B0100081B0100081B0100081B010008E0
:100090001B0100081B0100081B0100081B010008D0
:1000A0001B0100081B0100081B0100081B010008C0
:1000B0001B0100081B0100081B0100081B010008B0
:1000C0001B0100081B0100081B0100081B010008A0
:1000D0001B010008E51F00081B0100081B010008A8
:1000E0001B0100081B0100081B010008DFF80CD0F1
:1000F00000F018F8004800475D20000818030020B1
:100100000648804706480047FEE7FEE7FEE7FEE7B1
:10011000FEE7FEE7FEE7FEE7FEE7FEE7611A0008FE
:10012000ED000008064C074D06E0E06840F00103D2
:1001300094E8070098471034AC42F6D3FFF7DAFF93
:10014000CC200008EC20000870B5044600688168E7
:10015000C943C9071CD1816821F00101816000F009
:100160007BFA05460FE000BF00F076FA401B02283C
:1001700009D9A06A40F01000A062E06A40F00100D6
:10018000E062012070BD20688068C043C007EBD0EA
:10019000002070BDFEE77047FEE70000F8B50025BF
:1001A000009590F82420AE46012A1ED0012280F846
:1001B00024204A681F244FF47873072A17D2066850
:1001C000776B93FAA3FCBCFA8CFC521E02FB0CFC6E
:1001D00004FA0CF4A74393FAA3F3B3FA83F30C687D
:1001E0005A439440274377632DE00220F8BD066808
:1001F0000D2A14D2376B93FAA3FCBCFA8CFCD21FE5
:1002000002FB0CFC04FA0CF4A74393FAA3F3B3FA31
:1002100083F30C685A4394402743376313E0F76A2B
:1002200093FAA3FCBCFA8CFC0D3A02FB0CFC04FA1A
:100230000CF4A74393FAA3F3B3FA83F30C685A437D
:1002400094402743F7620A683823072406680A2A7D
:1002500014D3F76893FAA3FCBCFA8CFC0A3A02FBAD
:100260000CFC04FA0CF4A74393FAA3F3B3FA83F358
:100270008C685A4394402743F76012E0376993FA39
:10028000A3FCBCFA8CFC02FB0CFC04FA0CF4A743A4
:1002900093FAA3F3B3FA83F38C685A439440274349
:1002A00037610A68102A01D0112A20D1124B026846
:1002B0009A4217D193681B0219D4936843F4000340
:1002C00093600968102912D10C490D4A0968B1FBE5
:1002D000F2F101EB8101490000E0491E0091002983
:1002E000FBD104E0816A41F020018162012580F8A0
:1002F00024E02846F8BD0000002401400000002052
:1003000040420F002DE9F04104004FF0000514D0E9
:10031000A06A002628B9E66284F82460204600F02E
:100320008BF82046FFF710FFA16A01F0100101438E
:1003300004D0A06A40F01000A06277E0A16A21F426
:10034000885141F00201A1626268E16902270A4313
:10035000E16897FAA7F70B46B7FA87F7B9400A435F
:10036000A1684FF48077B94208D0012906D0002156
:10037000D4F814C0BCF1010F02D00AE03946F7E707
:10038000F3B1A36A43F02003A362E36A43F00103DD
:10039000E3622368D3F804C02CF4694C4CEA010CE6
:1003A000C3F804C021688B68DFF884C003EA0C033B
:1003B00013438B60A168B94210D001290ED016E01A
:1003C0004FF4604CA3699CFAACFCBCFA8CFC5B1E3D
:1003D00003FA0CF30B4343F40061DAE74FF47001C6
:1003E000256991FAA1F1B1FA81F16D1E8D40216864
:1003F000CB6A23F470032B43CB62216889680D4BD1
:100400001940914208D1E662A16A21F0020141F04F
:100410000101A162BDE8F081A06A20F0020040F075
:100420001000A062E06A40F00100E0620120F1E704
:10043000FDF7E1FFFE0E1FFF00B500680B4985B018
:10044000884210D10A48816941F400718161806954
:10045000694600F400700490012000900320019090
:10046000044800F015F805B000BD0000002401406C
:1004700000100240000C014031B500F0EDF80446D8
:1004800000F0EAF80099001B8842F9D338BD00005B
:100490002DE9F84FDFF890A100220AF1040B144671
:1004A00001274FF00F090BF1040E00BF0B6807FA8C
:1004B00004F52B40AB4274D1DFF870C14E68A6EB57
:1004C0000C0866452BD00DDC032E34D005DC36B38A
:1004D000012E19D0022E2FD11BE0112E16D0122E74
:1004E0002AD119E0B8F5881F19D006DCB8F5803F8D
:1004F00015D0B8F5801F1FD111E0B8F5001F0ED040
:10050000B8F5041F18D10AE0CA6815E0CA68121DC0
:1005100012E0CA6808320FE0CA680C320CE08A6840
:100520002AB1012A4FF0080203D0456104E00422F9
:1005300002E0056100E00022FF2B01D8064601E041
:1005400000F104064FEA840501D9A5F12005D6F88B
:1005500000C009FA05F82CEA080C02FA05F54CEA85
:10056000050CC6F800C04D68ED0057D5304DAE699A
:1005700046F00106AE61AD6924F0030605F0010501
:1005800000952C4D06EB050CDCF80850A6074FEA49
:10059000167809FA08F6B543274EB04202D1002674
:1005A00010E03BE0254EB04201D101260AE0244E86
:1005B000B04201D1022605E0224EB04201D103260D
:1005C00000E0042606FA08F62E43CCF808604D68D1
:1005D000DAF80060ED03554601D51E4300E09E4366
:1005E0002E604D68DBF80060AD035D4601D51E430B
:1005F00000E09E432E604D68DEF80060ED02754617
:1006000001D51E4300E09E432E604D68AD020E4DA5
:100610002E6801D51E4300E09E432E60641C102C02
:10062000FFF444AFBDE8F88F000401400000111052
:10063000001002400000014000080140000C014091
:1006400000100140001401400C0401400AB1016196
:1006500070470904FBE7000001480068704700008C
:100660000400002002480168491C01607047000036
:1006700004000020074810B5016841F01001016036
:10068000052000F087F8002000F006F800F016F8CA
:10069000002010BD0020024010B5044600F0E6F92D
:1006A0004FF47A71B0FBF1F000F097FD0022214683
:1006B000501E00F04FF8002010BD00001D4808B586
:1006C000816941F001018161806900F001000090C1
:1006D000052000F05FF8002211466FF00B0000F0DB
:1006E00039F8002211466FF00A0000F033F80022BA
:1006F00011466FF0090000F02DF800221146501F3E
:1007000000F028F800221146101F00F023F8002204
:100710001146901E00F01EF800221146501E00F0F7
:1007200019F80548416821F0E06141F0007141602D
:1007300008BD0000001002400000014000F01F0250
:10074000012191404009800000F1E020C0F8001133
:1007500070470000F0B40E4B1B680C46C3F3022335
:10076000C3F10705042D00D90425191D072901D25D
:10077000002300E0DB1E012606FA05F1491E214098
:1007800099409E40761E16403143F0BC01F012B9EC
:100790000CED00E0064900F0070208684FF6FF0381
:1007A000184040EA0220034A1043086070470000E6
:1007B0000CED00E00000FA052DE9F843054600784D
:1007C000454CC00774D0E06940F08050E061E069BA
:1007D000424E00F080500090306840F480703060ED
:1007E000FFF73AFF074604E0FFF736FFC01B642817
:1007F00033D83068C005F7D5206A10F4407051D066
:10080000A98801F4407181424CD0206A012631044C
:1008100091FAA1F2B2FA82F29300314A20F44070C8
:100820001344C3F8006491FAA1F1B1FA81F102EB2B
:1008300081010023C1F800342062C00732D0FFF7E5
:100840000BFF074641F288394FF0020808E000BF6D
:10085000FFF702FFC11B494502D90320BDE8F88319
:1008600098FAA8F1B1FA81F141F040014046B6EBA7
:10087000511F01D121680BE090FAA0F1B1FA81F18A
:1008800041F04001B0EB511F01D1216A00E0616AE3
:1008900098FAA8F0B0FA80F000F01F0206FA02F011
:1008A0000142D5D0206A696820F440700843206274
:1008B0002878800705D56068A96820F4404008437F
:1008C00060602878C00605D56068E96820F480007B
:1008D000084360600020C1E7001002400070004043
:1008E000000042422DE9F047DFF8708105460E46D0
:1008F000D8F8000000F00700B0420CD2D8F8001081
:1009000021F007013143C8F80010D8F8000000F0CA
:100910000700B04277D12878514C800705D5606830
:10092000A96820F0F000084360602878C00759D01B
:100930006968012001290DD0022929D05FF0020346
:1009400093FAA3F2B2FA82F242F02002520904D0E2
:10095000226803E04FF40033F2E7626A93FAA3F3EC
:10096000B3FA83F303F01F03984002424BD0606850
:1009700020F0030008436060FFF76EFE69680746D9
:1009800041F2883001290DD00229814617D025E097
:100990004FF00073D4E700BFFFF75EFEC11B49456F
:1009A00001D918E081466068C0F381000128F3D1C5
:1009B00018E000BFFFF750FEC11B49450BD8606827
:1009C000C0F381000228F5D10CE000BFFFF744FE20
:1009D000C11B494502D90320BDE8F087606810F0CB
:1009E0000C0FF3D1D8F80010404601F00701B142D6
:1009F0000BD9016821F0070131430160006800F064
:100A00000700B04201D00120E6E72878400705D56D
:100A10006068E96820F4E0600843606028780007B7
:100A200006D56068296920F4605040EAC100606022
:100A300000F052F86168F02292FAA2F201F0F0019F
:100A4000B2FA82F2D140074A515CC84006490860B8
:100A50000020FFF721FE0020BEE70000002002403A
:100A600000100240B4200008000000200148006887
:100A700070470000000000200848094900684968E4
:100A80004FF4E06292FAA2F201F4E061B2FA82F26B
:100A9000D140044A515CC84070470000000000206B
:100AA00000100240C420000808480949006849684D
:100AB0004FF4605292FAA2F201F46051B2FA82F25B
:100AC000D140044A515CC84070470000000000203B
:100AD00000100240C420000810B519A385B00FCB48
:100AE0008DE80F001AA01B4B006804905A681A4842
:100AF00002F00C0104291DD008291BD14FF47014F9
:100B000094FAA4F402F47011B4FA84F4E140D2032C
:100B10001DF8011010D55A684FF4003393FAA3F36F
:100B200002F40032B3FA83F3DA4004AB9A5CB0FB10
:100B3000F2F0484305B010BD08484843FAE700000A
:100B400002030405060708090A0B0C0D0E0F10100E
:100B5000010200000010024000127A0000093D006E
:100B60002DE9F84F04460078F74DC0074FF0010615
:100B700025D068687704C0F38100012807D0686831
:100B8000C0F3810002281BD16868C00318D597FA0A
:100B9000A7F0B0FA80F040F02000400901D02868AA
:100BA00000E0686A97FAA7F1B1FA81F101F01F013C
:100BB00006FA01F108425ED0606800287CD05AE055
:100BC0006068B0F5803F0BD010B1B0F5A02F11D008
:100BD000286820F480302860286820F4802002E013
:100BE000286840F480302860606828B3FFF734FD3F
:100BF00080460BE0286840F480202860F0E700BFC2
:100C0000FFF72AFDA0EB0800642871D897FAA7F037
:100C1000B0FA80F040F02000400901D0286800E0E0
:100C2000686A97FAA7F1B1FA81F101F01F0106FA9B
:100C300001F10842E4D01EE0FFF70EFD804605E01A
:100C4000FFF70AFDA0EB08006428DED897FAA7F0AA
:100C5000B0FA80F040F02000400901D0286800E0A0
:100C6000686A97FAA7F1B1FA81F101F01F0106FA5B
:100C700001F10842E4D12078DFF8D08280074FF0FC
:100C800000094FF002075BD568684FF0F80B10F0D1
:100C90000C0F07D06868C0F3810002281CD1686877
:100CA000C00319D497FAA7F0B0FA80F040F0200002
:100CB000400902D0286801E08BE0686A97FAA7F142
:100CC000B1FA81F101F01F0106FA01F108422CD0BE
:100CD000206901287DD128E0206990B396FAA6F01A
:100CE000B0FA80F048F82060FFF7B6FC824607E0D3
:100CF00011E100BFFFF7B0FCA0EB0A00022884D886
:100D000097FAA7F0B0FA80F040F02000400901D037
:100D1000286800E0686A97FAA7F1B1FA81F101F05A
:100D20001F0106FA01F10842E4D028689BFAABF2F1
:100D30006169B2FA82F220F0F8009140084328601D
:100D400025E0FFE796FAA6F1B1FA81F148F8219083
:100D5000FFF782FC824605E0FFF77EFCA0EB0A006D
:100D60000228CCD897FAA7F0B0FA80F040F0200023
:100D7000400901D0286800E0686A97FAA7F1B1FA43
:100D800081F101F01F0106FA01F10842E4D1207857
:100D900000076ED5A069B8B396FAA6F0B0FA80F055
:100DA00008EB8000C0F88064FFF756FC824605E03F
:100DB000FFF752FCA0EB0A000228A0D897FAA7F090
:100DC000B0FA80F040F06000B6EB501F02D1286806
:100DD0000CE062E197FAA7F0B0FA80F040F0600012
:100DE000B7EB501F01D1286A00E0686A97FAA7F1B3
:100DF000B1FA81F101F01F0106FA01F21042D7D0D9
:100E00000120FFF739FB34E0FFE796FAA6F1B1FACB
:100E100081F108EB8101C1F88094FFF71DFC824647
:100E200006E000BFFFF718FCA0EB0A00022872D80A
:100E300097FAA7F0B0FA80F040F06000B6EB501FD0
:100E400001D128680BE097FAA7F0B0FA80F040F0E3
:100E50006000B7EB501F01D1286A00E0686A97FA7A
:100E6000A7F1B1FA81F101F01F0106FA01F2104277
:100E7000D8D12078400765D5E86940F08050E86116
:100E8000E869DFF8CCB000F080500090DBF800108B
:100E900041F48071CBF80010FFF7DEFB824605E0DD
:100EA000FFF7DAFBA0EB0A00642834D8DBF8000077
:100EB000C005F5D5E06801280AD008B1052813D08F
:100EC000286A20F001002862286A20F0040002E06D
:100ED000286A40F001002862E06841F2883B90B344
:100EE000FFF7BAFB82460BE0286A40F00400286254
:100EF000EEE700BFFFF7B0FBA0EB0A0159450AD8A7
:100F000097FAA7F0B0FA80F040F04000B6EB501F1F
:100F100002D128680CE0A3E097FAA7F0B0FA80F0BD
:100F200040F04000B7EB501F01D1286A00E0686A2A
:100F300097FAA7F1B1FA81F101F01F0206FA02F166
:100F40000842D7D031E005E00010024000004242E4
:100F500000700040FFF780FB824605E0FFF77CFB56
:100F6000A0EB0A0159457BD897FAA7F0B0FA80F0B8
:100F700040F04000B6EB501F01D128680BE097FA13
:100F8000A7F0B0FA80F040F04000B7EB501F01D15D
:100F9000286A00E0686A97FAA7F1B1FA81F101F0D6
:100FA0001F0206FA02F10842D8D1E06980B36968ED
:100FB000C1F38101022970D04FF080714F000228E7
:100FC000484609D091FAA1F1B1FA81F148F821001F
:100FD000FFF742FB044669E08A4691FAA1F1B1FAB3
:100FE00081F1C14648F82100FFF736FB804605E055
:100FF000FFF732FBA0EB0800022854D897FAA7F0BD
:10100000B0FA80F040F02000400902D0286801E0EA
:1010100061E0686A97FAA7F1B1FA81F101F01F0166
:1010200006FA01F10842E3D1206AB0F5803F05D10C
:101030006868A16820F4003008436860D4E90801BA
:101040000843696821F47411084368609AFAAAF0A9
:10105000B0FA80F049F82060FFF7FEFA044606E097
:1010600021E000BFFFF7F8FA001B02281BD897FA0F
:10107000A7F0B0FA80F040F02000400901D02868C5
:1010800000E0686A97FAA7F1B1FA81F101F01F0157
:1010900006FA01F10842E5D01DE01EE0FFF7DCFA98
:1010A000001B022802D90320BDE8F88F97FAA7F0A9
:1010B000B0FA80F040F02000400901D0286800E03C
:1010C000686A97FAA7F1B1FA81F101F01F0106FAF7
:1010D00001F10842E2D10020E6E70120E4E7000048
:1010E00010B5040003D094F8510010B104E00120C1
:1010F00010BD204600F038F8022084F85100206826
:10110000016821F040010160D4E901010843D4E9FC
:1011100003121143084361690843218B01F40071F4
:101120000843E1690843216A0843A16A084321682A
:101130000860A069042101EA1040616A084321683F
:1011400048602168E06A08612068C16921F4006193
:10115000C1610449002008706065012084F85100D5
:10116000002010BD0800002010B50068114986B0AD
:1011700088421CD11048816941F4805181618069A5
:101180000E4C00F480500490A020009002200190AA
:101190000120039069462046FFF77AF9002140209C
:1011A000CDE90001029169462046FFF771F906B0CA
:1011B00010BD000000300140001002400008014056
:1011C0004FF0E0210428086903D020F004000861F2
:1011D000704740F00400FAE7704710B5401EB0F1C8
:1011E000807F01D3012010BD4FF0E02460610F210A
:1011F000601700F0DFFB0020A061072020610020C5
:1012000010BD10B5FFF7E8FF10BD30B590F83820DD
:10121000012A20D0012280F83820022380F83930BA
:1012200003685C6824F070045C6003685C680D68A7
:101230002C435C6003689C6824F080049C60036815
:101240009C6849680C439C6080F83920002180F834
:101250003810084630BD022030BD10B5040003D060
:1012600094F8390010B107E0012010BD002084F887
:101270003800204600F00CF8022084F83900211DC7
:10128000206800F011FC012084F83900002010BD16
:1012900008B50068B0F1804F08D10548C16941F038
:1012A0000101C161C06900F00100009008BD0000AB
:1012B0000010024070B5044690F83800012817D09D
:1012C000012584F83850022084F8390020688268AB
:1012D00022F0770222F47F4282600868502837D0DB
:1012E0000DDC202859D005DC88B3102841D151E00D
:1012F000022070BD302853D040283AD13FE060280A
:101300002ED070280BD0B0F5805F03D0B0F5005F11
:101310002FD110E02068816821F0070115E0CB682B
:10132000D1E90121206800F0FCFB2168886840F0C9
:10133000770088601DE0CB68D1E90121206800F0CA
:10134000F0FB2068816841F48041816011E01EE07B
:10135000CA684968206800F099FC5021206806E0BE
:10136000CA684968206800F0A2FC6021206800F08B
:10137000E2FB84F83950002084F8380070BDCA6858
:101380004968206800F082FC40212068EFE70021D6
:101390002068ECE710212068E9E720212068E6E7D3
:1013A00030212068E3E700001FB50068B0F1804FEE
:1013B00009D10F200090022001900320039069467C
:1013C0000148FFF765F81FBD0008014070B50446ED
:1013D00090F838000D4601280DD0012684F83860B9
:1013E000022084F8390042B1042A18D0082A2AD0F1
:1013F0000C2A4DD139E0022070BD206800F0A4FB1A
:101400002068816941F0080181612068816921F0CB
:1014100004018161206881692A69114311E0206813
:1014200000F0BAFB2068816941F4006181612068A5
:10143000816921F480618161206881692A6941EABA
:101440000221816124E0206800F0D2FB2068C1699C
:1014500041F00801C1612068C16921F00401C16146
:101460002068C1692A69114311E0206800F0ECFB93
:101470002068C16941F40061C1612068C16921F43B
:101480008061C1612068C1692A6941EA0221C161A4
:1014900084F83960002084F8380070BD10B504006D
:1014A00003D094F8390010B107E0012010BD0020EE
:1014B00084F83800204600F00CF8022084F8390047
:1014C000211D206800F0F0FA012084F83900002086
:1014D00010BD704710B504460068012200F016FBED
:1014E00007492068884203D1416C41F400414164BE
:1014F0002068016841F001010160002010BD00007A
:10150000002C01407047000038B5044600680168AF
:10151000C26811F0010F02F4807204D01AB1E16BBD
:1015200041F00101E1630168C1F34002416901F04A
:10153000010122B119B1E26B42F00402E2630268D8
:10154000C2F3800222B119B1E26B42F00202E263FF
:101550000268C2F3C00222B119B1E16B41F0080187
:10156000E1630168C068C1F3401100F0200019B1C7
:1015700010B1204600F0AEFB20680168C068C1F3DE
:10158000C01100F0800019B110B1204600F0AEFC8F
:1015900021680868CA68C0F3801002F04002012583
:1015A00070B16AB1CA68204622F04002CA6094F85D
:1015B0003910322911D080F8395000BF00F0D4F82A
:1015C000E06B002808D0206801684068009084F82B
:1015D00039502046FFF796FF38BD222180F8391098
:1015E000ECE770B5040004D094F83900002510B180
:1015F00006E0012070BD84F83850204600F020F845
:10160000022084F839002068C16821F40051C160CB
:10161000204600F0B3FB2068016921F4904101618C
:101620002068416921F02A0141612068C16841F4C4
:101630000051C160E563012084F83900002070BDCD
:1016400010B50068114986B088421DD110488169E3
:1016500041F48041816180690E4C00F48040049027
:101660004FF4007000900220019001200390694621
:101670002046FEF70DFF00212015CDE90001029163
:1016800069462046FEF704FF06B010BD0038014051
:101690000010024000080140704700002DE9F047AB
:1016A000044690F8390099460D46012801D02228B9
:1016B00058D12DB322B394F83800012852D0012616
:1016C00084F838600027E76394F8390022281AD09C
:1016D0005FF0120084F83900A284E2844FF480584D
:1016E000E08C4B46401EE084A0684FF0000240456D
:1016F0004FF08001204613D100F02BFC08BB04E022
:101700000120BDE8F0873220E4E728882168C0F393
:1017100008004860206908B16D1C08E0AD1C06E0B7
:1017200000F017FC68B9216815F8010B4860E08CDF
:101730000028D5D14B4600224021204600F009FC6C
:1017400008B10320DDE794F83900322806D084F888
:10175000396000BF84F838700020D2E7222084F876
:101760003900F7E70220CCE77047FEE73EB51048A6
:1017700000240E498460C460446101600125056154
:101780004FF460214460C161FEF7BCFD08B1FEF773
:1017900003FD1020CDE90005694602940448FEF7D8
:1017A000FDFC002801D0FEF7F7FC3EBD00240140FF
:1017B00010000020F0B5264885B0816941F0200175
:1017C0008161816901F020010491816941F0040186
:1017D0008161816901F004010491816941F008018E
:1017E000816180691B4D00F0080041F610140490DF
:1017F000002221462846FEF729FF174E0022CE215F
:101800003046FEF723FF009401240227694628464C
:1018100003970194FEF73CFECE20CDE90004694613
:1018200003973046FEF734FEE00300900B48002497
:10183000CDE9010469462846FEF72AFE3020CDE9AD
:101840000004694630460294FEF722FE05B0F0BD62
:101850000010024000080140000C0140000011107F
:10186000104810B50E4901604FF4827141600021AB
:101870008160C1604FF400720161C0E9051210225D
:10188000C0E90721416281620A21C162FFF728FC99
:10189000002803D0BDE81040FEF77EBC10BD00005C
:1018A00000300140BC00002010B532488EB04FF02F
:1018B0008041016002210024C0E9011440F2E731B7
:1018C000C0E90314FFF7C9FC08B1FEF765FC4FF44B
:1018D0008050079007A92748FFF7ECFC08B1FEF7F6
:1018E0005BFC2448FFF7DAFD08B1FEF755FC0B94CA
:1018F0000BA920480C94FFF788FC08B1FEF74CFCBC
:101900006020CDE90004029400226946194804943D
:10191000FFF75CFD08B1FEF73FFC0422694615485D
:10192000FFF754FD08B1FEF737FC0822694611485D
:10193000FFF74CFD08B1FEF72FFC0C2269460D485D
:10194000FFF744FD08B1FEF727FC0A48FFF72CFD1E
:1019500000210848FFF7BEFD04210648FFF7BAFD45
:1019600008210448FFF7B6FD0C210248FFF7B2FD3D
:101970000EB010BD400000200C4810B50A490160AF
:101980004FF4E1314160002181600C22C160C0E967
:1019900004128161C161FFF724FE002803D0BDE875
:1019A0001040FEF7F9BB10BD003801407C0000205C
:1019B000FEE770470907090E002806DA00F00F005D
:1019C00000F1E02080F8141D704700F1E02080F85D
:1019D000001470477047704710B5FEF743FEBDE82E
:1019E0001040FFF70EBC30B593B001210804CDE9DB
:1019F00000100025029502240491CDE907404FF420
:101A0000E01009906846FFF7ABF800B1FEE70AA9BD
:101A10000F2081E831004FF48060CDE90D050221EF
:101A20000AA8FEF75FFF00B1FEE74FF400401190F7
:101A30000F940FA8FEF7C0FE00B1FEE7FFF716F8FF
:101A40004FF47A71B0FBF1F0FFF7C7FB0420FFF70A
:101A5000B7FB00221146501EFEF77CFE13B030BDCE
:101A60000D48016841F00101016041680B4A1140D5
:101A7000416001680A4A11400160016821F4802137
:101A80000160416821F4FE0141604FF41F01816053
:101A90000449C00308607047001002400000FFF8CE
:101AA000FFFFF6FE08ED00E0F0B50268144B154CA0
:101AB000154D4FF08047984205D0B84203D0A04260
:101AC00001D0A84203D122F070064A6832439842FE
:101AD00005D0B84203D0A04201D0A84203D122F4DD
:101AE0004074CA68224302608A68C2620A688262DD
:101AF000984201D10969016301214161F0BD0000F3
:101B0000002C0140000400400008004010B50123F3
:101B1000046A8B409C430462036A8A401343036255
:101B200010BD10B5846842EA032224F47F440A43BE
:101B30002243826010BD826822F070020A4342F0A4
:101B4000070181607047000030B5026A22F001028F
:101B50000262026A4368846924F073050C682C43AE
:101B600022F002058A682A430A4DA8420BD122F0CE
:101B70000805CA6823F440732A434D6922F0040221
:101B80001D438B692B434360846149684163026252
:101B900030BD0000002C014030B5026A22F0100276
:101BA0000262026A436884690D6824F4E64444EAE8
:101BB00005248D6822F0200242EA05120B4DA8424E
:101BC0000ED1CD6822F0800242EA05124D6923F45D
:101BD000406343EA85038D6922F0400243EA8503AE
:101BE0004360846149688163026230BD002C01401A
:101BF00030B5026A22F480720262036A4268C469E4
:101C000023F4007324F073050C682C438D6843EAB9
:101C100005230C4DA8420ED1CD6823F4006343EA9E
:101C200005234D6922F4405242EA05128D6923F4DE
:101C3000806342EA05124260C4614968C16303627D
:101C400030BD0000002C014030B5026A22F4805201
:101C50000262046A4268C3690D6823F4E64343EAFA
:101C600005238D6824F4005444EA0534064DA84247
:101C700004D14D6922F4804242EA85124260C36178
:101C800049680164046230BD002C014010B5036A4C
:101C9000046A24F001040462846924F0F00444EA34
:101CA000021423F00A020A438461026210BD10B5D7
:101CB000036A23F0100303628369046A23F4704308
:101CC00043EA023224F0A00343EA01118261016277
:101CD00010BD000010B590F83910222903D0322928
:101CE00001D0022010BD8168B1F5805F11D001697B
:101CF000002901681FD0496801F07F03816A4A1CEE
:101D000082620B70C18D491E0904090CC18518D06F
:101D100030E00269816A002A0268526805D0D2B2B6
:101D20000A80816A491C8162ECE7C2F308020A80DA
:101D3000816A891CF7E74A68816A4B1C83620A70D2
:101D4000E0E70168CA6822F02002CA6090F8391002
:101D5000322911D00168CA6822F48072CA60016811
:101D60004A6922F001024A615FF0010180F83910EE
:101D7000FFF792FC002010BD1221F7E72DE9F0419A
:101D8000044600680169E26821F440511143016191
:101D90002169A0680843616908432168CA6841F263
:101DA0000C639A430243CA6020684169A26921F426
:101DB0004071114341614C492068642532268842B4
:101DC0003CD1FEF771FE00EBC00101EB0010616831
:101DD0008900B0FBF1F7FEF767FE00EBC00101EBF5
:101DE00000106168B0468900B0FBF1F0B0FBF5F07F
:101DF0006FF01801484307EB800106EB0110B0FBC0
:101E0000F5F000F0F006FEF74FFE00EBC00101EB2D
:101E1000001061688900B0FBF1F0B0FBF5F006EB53
:101E20000016FEF741FE00EBC00101EB00106168F7
:101E30008900B0FBF1F7FEF737FE3BE0FEF71CFE32
:101E400000EBC00101EB001061688900B0FBF1F705
:101E5000FEF712FE00EBC00101EB00106168B04616
:101E60008900B0FBF1F0B0FBF5F06FF018014843CA
:101E700007EB800106EB0110B0FBF5F000F0F00677
:101E8000FEF7FAFD00EBC00101EB0010616889006C
:101E9000B0FBF1F0B0FBF5F006EB0016FEF7ECFD41
:101EA00000EBC00101EB001061688900B0FBF1F7A5
:101EB000FEF7E2FD00EBC00101EB00106168890054
:101EC000B0FBF1F0B0FBF5F06FF01801484307EB01
:101ED000800108EB0110B0FBF5F0216800F00F0065
:101EE00030448860BDE8F0810038014090F8391036
:101EF000122903D0322901D0022070478168B1F540
:101F0000805F016A0BD04A1C026202680978516046
:101F1000C18C491E0904090CC1840ED017E0098840
:101F20000268C1F30801516001690029016A02D009
:101F3000491C0162ECE7891CFBE70168CA6822F0D2
:101F40008002CA600068C16841F04001C1600020A1
:101F500070472DE9F0471D4690460E460446FEF7B1
:101F60007BFB07465FEA08004FF000094FF00108CD
:101F700008D030E0681C05D095B1FEF76DFBC01BA2
:101F8000A8420DD82068006836EA0000F2D127E0A8
:101F9000681C20D025B1FEF75FFBC01BA8421AD9F0
:101FA0002068C16821F08001C1602068C16821F00B
:101FB0002001C1602068C16821F48071C16020687F
:101FC000416921F00101416184F8398084F8389039
:101FD0000320BDE8F0872068006836EA0000D7D00B
:101FE0000020F6E70148FFF78FBA00007C000020D0
:101FF000FEE70000014A024900F013B8452000083E
:102000000C00002002E008C8121F08C1002AFAD103
:1020100070477047002001E001C1121F002AFBD168
:1020200070472DE9F04116460F460446002503E0AF
:102030003946B047641C6D1C20780028F8D128462A
:10204000BDE8F08113B54FF6FF73012269460248DF
:10205000FFF724FB00981CBD7C000020FEF70AFB64
:10206000FFF7C1FCFFF7A6FBFFF780FBFFF7F8FBCC
:10207000FFF782FCFFF718FC012200212520FEF764
:1020800069FB2520FEF75AFB4FF47A7403A0FFF793
:10209000B1FF2046FEF7F0F9F8E7000074686973B5
:1020A000206973206120746573742070726F6D0AEB
:1020B0000D00000000000000000000000102030409
:1020C000060708090000000001020304EC200008D4
:1020D000000000201000000004200008FC20000880
:1020E00010000020080300001420000800A24A0489
:0C20F000000000000000000000000000E4
:04000005080000ED02
:00000001FF
